:020000040800F2
:1000000028080020AD010008F7330008FB2E000887
:10001000F53300088D150008713600080000000057
:10002000000000000000000000000000FB3300089A
:100030004918000800000000F9330008FD330008EB
:10004000C7010008C7010008C7010008C701000870
:10005000C7010008C7010008C7010008C701000860
:10006000C7010008C7010008C7010008C701000850
:10007000C7010008C7010008C7010008C701000840
:10008000C7010008C7010008C7010008C701000830
:10009000C7010008C7010008C7010008C701000820
:1000A000C7010008C7010008C7010008C701000810
:1000B000C7010008C7010008C7010008C701000800
:1000C000C7010008C7010008C7010008C7010008F0
:1000D000C7010008C7010008C7010008C7010008E0
:1000E000C7010008C7010008C701000800F002F8B6
:1000F00000F04DF80AA090E8000C82448344AAF175
:100100000107DA4501D100F042F8AFF2090EBAE872
:100110000F0013F0010F18BFFB1A43F0010318473B
:10012000E456000004570000103A24BF78C878C194
:10013000FAD8520724BF30C830C144BF04680C60ED
:10014000704700000023002400250026103A28BF35
:1001500078C1FBD8520728BF30C148BF0B60704739
:10016000662905F03482642900F07E80632900F05E
:100170005484002070471FB500F05CFC0400002090
:10018000002104F07FF9E0601FBD10B510BD00F044
:1001900055FD1146FFF7EFFF03F028FB00F073FD5C
:1001A00003B4FFF7F2FF03BC00F0B6FD0948804737
:1001B00009480047FEE7FEE7FEE7FEE7FEE7FEE749
:1001C000FEE7FEE7FEE7FEE704480549054A064B61
:1001D0007047000079340008ED0000082802002074
:1001E0002808002028040020280400200FB41CB593
:1001F000074B06AA7B4469460090059800F0EBFB8C
:100200000020694600F0FAFB1CBC5DF814FB0000FE
:100210000508000070B50C460546012A05D028786F
:10022000800600D5EA69002302E0012305E05B1C9B
:10023000934202D2E05C0028F9D1A869E618C01AFE
:10024000A861286A184428622846AFF3008004E0B9
:10025000D5E9012114F8010B9047B442F8D32846A0
:10026000AFF3008070BD00002DE9F0410646002488
:1002700010687529314616A510D0AFF3008000280C
:1002800002DA404213A507E031688A0701D512A5BA
:1002900002E0490704D511A5012401E0AFF3008075
:1002A00000210A2206F1240709E0B0FBF2FCB0FBB2
:1002B000F2F302FB1C00303078541846491C002829
:1002C000F3D123462A463046BDE8F04100F015B987
:1002D000000000002D0000002B00000020000000A6
:1002E0002DE9F0474FF0000A89460446C0F820A0E7
:1002F0002046E1688847002876D0252806D0D4E932
:1003000001219047206A401C2062F1E7E168204605
:1003100000258847C4F81CA006460027C4F818A08A
:100320002A2E09D0304603F059FA38B304EB870877
:10033000303EC8F8186019E059F8041B204604EB59
:1003400087029161E1688847012F064618D1E0696C
:10035000002820DA25F020051DE0D8F8180000EB71
:10036000800006EB40003038C8F818002046E168ED
:100370008847064603F032FA0028EED1012F0AD052
:100380002E2E08D12046E16888477F1C0646022FA2
:1003900045F02005C4DBA069002803DA404245F09F
:1003A0000105A061E80701D025F01005B6B1A6F15E
:1003B0004100192802D8203645F400654A463146E6
:1003C000204625604D46FFF7CBFE58B1012806D0E8
:1003D000ED1D25F0070000F1080989E704E005F1AB
:1003E000040985E730468AE7206ABDE8F08710B542
:1003F000431C02E010F8011B71B18107FAD14FF0E4
:10040000013202C88C1A8C4314EAC211F9D0C01A06
:100410000A0603D0C01E10BDC01A10BD0A0401D0C8
:10042000801E10BD0902FCD0401E10BD10B5203A40
:10043000C0F00B80B1E81850203AA0E81850B1E89D
:100440001850A0E81850BFF4F5AF5FEA027C24BF53
:10045000B1E81850A0E8185044BF18C918C0BDE84A
:1004600010405FEA827C24BF51F8043B40F8043B13
:1004700008BF7047D20728BF31F8023B48BF11F8C8
:10048000012B28BF20F8023B48BF00F8012B704722
:100490004FF0000200B5134694469646203922BF1D
:1004A000A0E80C50A0E80C50B1F12001BFF4F7AF68
:1004B000090728BFA0E80C5048BF0CC05DF804EB4A
:1004C000890028BF40F8042B08BF704748BF20F8B8
:1004D000022B11F0804F18BF00F8012B70477047B6
:1004E0007047704710B500F0A9FA006810BD10B54C
:1004F000044600F0A3FA046010BD2DE9F0470D4654
:1005000099469246044600F124080168880604D5FD
:10051000E06921F01001216000E00120A84201DD26
:10052000471B00E00027A1697A1902EB0900081AAD
:10053000A0612078C00602D42046AFF300800026D8
:1005400008E0D4E901211AF806009047206A401C0F
:10055000761C20624E45F4DB2078C0060AD5204682
:10056000AFF3008006E0D4E9012130209047206AF3
:10057000401C2062381EA7F10107F4DC07E0D4E933
:10058000012118F805009047206A401C2062281EAF
:10059000A5F10105F3DC2046AFF3008020780006CA
:1005A00002D50220BDE8F0870120FBE770472DE966
:1005B000FF4F0C461E464FF0FF378BB0D2E90001CB
:1005C000DDF860800A908A46C1F30A5505B93D46B8
:1005D000002108464FF00000BAF1000F00F440007F
:1005E00005DA00EB80004FF4400101EA50004FEAC9
:1005F0009059B9F1010F00DDB9460A9850EA4A0056
:100600000ED044F61050A5F2FF3545432F14B8F133
:10061000000F1ED07542291E1EDDC9F100021CE02C
:10062000B8F1010F4FF0000001D0302103E0F24398
:1006300005E02154401CB042FBDB30460022002183
:1006400021540B99C1F80880C1E900200FB0BDE822
:10065000F08FBD1B6D1CDEE74A4600DA694206A832
:1006600000F076FA06AB93E8070003AB83E80700D7
:1006700050460A9900F057FB8DE80700A0F500509E
:100680001F3800900398002D0ADD42F21F014A46F0
:100690000844002303A90390684600F0C0FD09E068
:1006A000A0F500504A461F38002303A9039068466E
:1006B00000F0CAFD8DE807000004000C03D04FF0E5
:1006C000FF30410800E01046B8F1000F03D00022CF
:1006D000009215461EE0751E05D400F0B3F93032C5
:1006E00062556D1EF9D5B3460122084302D000229F
:1006F0007F1C04E02078302801D100227F1E002AD0
:10070000099784D01DE0112D07DA00F09BF93032F3
:1007100062556D1C50EA0102F5D1084302D00098E1
:10072000C8B10EE00021681E05E0235C625C6354E2
:100730002254401E491C8142F7DBAB46A81B401ED9
:100740000990002004F80B000B98099AC0F8088063
:10075000C0E9002B7AE711264FF0000857E72DE992
:10076000F04F88460446D21D22F0070191B0D1E92E
:100770000001CDE90A0102F07CFF02460B98C00F90
:1007800001D02D2007E02068810701D52B2002E051
:10079000202101EAC000032A099001D0072A05DBC5
:1007A00003464146204600F093F90BE1207880068D
:1007B00001D5E06900E00620B8F1650F814606D05A
:1007C000B8F1660F18D0B8F1670F70D131E0002092
:1007D000B9F1110F009001DB112301E009F10103D0
:1007E0000AAA01A90CA8FFF7E2FEDDE90C700026B9
:1007F00009F10105834647E001204B4600904FF088
:1008000000470AAA01A90CA8FFF7D1FEDDE90DB047
:100810000C995D46002610B909F101000D18B9EBDD
:10082000050003D4C0F1FF3609F10105A5EB09006D
:100830002BE0B9F1010F01DA4FF001090020B9F105
:10084000110F0090484601DD112300E003460AAA7B
:1008500001A90CA8FFF7ABFEDDE90C704D460026A0
:100860008346207800070AD4AB4500DA5D4601A82C
:10087000012D04DD411911F8011C302907D04F4525
:1008800002DA17F1040F04DA012082460FE06D1E30
:10089000EEE7002F02DCED1B3E4403E0781CA8428B
:1008A00000DD7D1CB81B00F1010A4FF000472078E5
:1008B000000703D4AA4501DB4FF0FF3A0021B7F14E
:1008C000004F0DF143088DF8431024D002202B2354
:1008D000002F01DA7F422D230A21021EA0F1010020
:1008E00000DC5FB197FBF1FC97FBF1F201FB1C7C94
:1008F00017460CF1300C08F801CDEEE7A8F1010025
:1009000003702188090501D5452100E06521A0F18A
:10091000010800F8011C09980FA9A1EB0807FF1DA9
:1009200000B10120411901EBEA70A1693844081AAD
:10093000401EA0612078C00602D42046AFF300809C
:10094000099828B1D4E901219047206A401C20620F
:100950002078C00622D52046AFF300801EE0002E8E
:1009600004DBB34502DD01A8805D00E03020D4E95E
:1009700001219047206A401C2062761CAAF10100E8
:100980005FEA000A0AD100F055F8C0680168405CCF
:10099000D4E901219047206A401C2062281EA5F15D
:1009A0000105DCDC07E0D4E9012118F8010B9047D0
:1009B000206A401C2062381EA7F10107F3DC2046A4
:1009C000AFF30080032011B041E6000001694A1C2A
:1009D00002610878704700B58FB0CDE90131002180
:1009E000059105497944CDE9031011466846FFF7A2
:1009F00077FC0FB000BD0000E5FFFFFF0A6802F8BA
:100A0000010B0A60704710B5436913B1AFF3008062
:100A100001E0FFF7FFFB012010BD127800F1240177
:100A20000A7000224A700122EDE711684FF0FF3290
:100A3000E9E7000000487047E801002000487047DF
:100A4000C801002030B5B0F10A024FEA900E71F1F2
:100A500000034EEA817EB0EB0E0061EB91014FEA9C
:100A6000101E4EEA017E10EB0E0041EB11114FEA11
:100A7000102E4EEA016E10EB0E0041EB11214FEAF1
:100A8000104E4EEA014E10EB0E0041EB11414018A2
:100A900041F100014FEAD00040EA41704FEAD10134
:100AA00010EB80054FEA810444EA907444EB0104A2
:100AB0006D1944EB0404521BA3414FF0000348BFDF
:100AC0000A3200D530BD401C41F1000130BD0000AC
:100AD0002DE9F0411F46044603260168072A01F468
:100AE000006004DB08B116A505E016A503E008B117
:100AF00015A500E015A521F010002060A069C01E1A
:100B0000A0610FB1401EA0612046AFF300804FB13D
:100B1000D4E9012138469047206A401C2062C01C5D
:100B2000206206E0206AFAE7D4E9012115F8010BFA
:100B30009047761EF8D22046AFF30080BDE8F081E2
:100B40004E414E006E616E00494E4600696E660071
:100B50002DE9F047814616468AB0354878440DC8DD
:100B60008DE80D0032487844801C03AC0DC884E841
:100B70000D0041F69B300844372190FBF1F290FBC9
:100B8000F1F5A5F1800501FB12041B3C02D564427E
:100B9000012000E00020DFF898A080460027FA44FA
:100BA000AAF1BE0A0EE0E0070AD03246684607EB1B
:100BB000470101230AEB810100F046FB8DE80700A5
:100BC00064107F1C002CEED1194F7F44AE3F19E01A
:100BD000E80715D007EB04100DF1180A90E80E0095
:100BE0008AE80E00C068F04201D198190890324698
:100BF000012306A903A800F027FB03AB83E8070045
:100C00006D10641C002DE3D14FF00103324669469C
:100C1000B8F1000F03A802D000F001FB01E000F0E2
:100C200013FBC9E90001C9F808200AB0BDE8F08744
:100C30008C4C000000487047C80100207546FFF743
:100C4000F9FFAE4605006946534620F00700854689
:100C500018B020B5FFF7B8FABDE820404FF0000605
:100C60004FF000074FF000084FF0000B21F0070194
:100C7000AC46ACE8C009ACE8C009ACE8C009ACE8D7
:100C8000C0098D46704710B50446AFF3008020467A
:100C9000BDE81040FFF784BA4FF0013C50F8042B38
:100CA00051F8043B9A4221D1A2EB0C03934313EA7F
:100CB000CC1317D150F8042B51F8043B9A4215D1AC
:100CC000A2EB0C03934313EACC130BD150F8042B83
:100CD00051F8043B9A4209D1A2EB0C03934313EA67
:100CE000CC13DBD04FF00000704700BFD01A01BA20
:100CF000B1FA81F101F0180122FA01F0CB40C1F103
:100D00002001DBB2C0B2C01A2CFA01F3D11A914310
:100D100011EAC311E6D1704701491820ABBEFEE7C6
:100D20002600020070475FEA400C08BF91F0000FF8
:100D30004FEA8C234FEAC12243EA51514FEA1C503B
:100D400018BF00F5F0404FEA300018BF41F00041F5
:100D50005FEA6C5C00F02980BCF1FF3F08BF40F007
:100D600080407047130C06BF12044FF0100C4FF078
:100D7000000C130E04BF12020CF1080C130F04BF79
:100D800012010CF1040C930F04BF92000CF1020C41
:100D9000D30F04BF52000CF1010C11464FF00002BA
:100DA000A0F11F00A0EB0C00704711F0004F08BF2E
:100DB000704731F000413FF4D5AF0B0C06BF09047A
:100DC0004FF0100C4FF0000C0B0E04BF09020CF199
:100DD000080C0B0F04BF09010CF1040C8B0F04BFAE
:100DE00089000CF1020CCB0F04BF49000CF1010C7F
:100DF000CCF12003A0EB0C0022FA03F302FA0CF270
:100E000041EA030100F10100704720F07F4C80EAC5
:100E1000030023F07F47ACEB070303F57C5300F09E
:100E2000004003F1FF032DE980494FEA154B09B457
:100E30004FEA144325EA0B4E24EA03480FF2042636
:100E400006EB132749083E785FEA320203FB066788
:100E5000C7F5000707FB06F64FEA54374FEAD646B8
:100E600006F1020607FB066CCCF1005C4FEA1C475A
:100E70002CEA074C07FB06F40CFB06F504EB1546C1
:100E80004FEA961634BF00204FF000404FEAD137AA
:100E900006FB07FC4FEA1C4C0CFB0BF7D21B03FBB9
:100EA0000CF761EB07010CFB0EF7B0EB074072EBA0
:100EB00017420CFB08F734BFA2EB0742B2EB074224
:100EC00061EB17414FEA0C444FEA910706FB07FC20
:100ED0004FEA1C4C0CFB0BF7B0EBC74072EB5732E0
:100EE00003FB0CF734BFA2EBC742B2EBC74261EB86
:100EF00057310CFB0EF7B0EBC70072EB57720CFBCF
:100F000008F734BFA2EBC702B2EBC70261EB57711F
:100F1000039F4FEA816141EA921104EBCC044FEA4E
:100F2000D1374FEA826206FB07FC42EA90124FEA91
:100F300080604FEA1C4C0CFB0BF7D21B03FB0CF739
:100F400061EB07010CFB0EF7B0EB074072EB1742A9
:100F50000CFB08F734BFA2EB0742B2EB074261EB90
:100F600017414FEA8C554FEA910704EB9C2406FB8E
:100F700007FC4FEA1C4C0CFB0BF7B0EBC74072EBC5
:100F8000573203FB0CF734BFA2EBC742B2EBC742A8
:100F900061EB57310CFB0EF7B0EBC70072EB5772E9
:100FA0000CFB08F734BFA2EBC702B2EBC70261EB40
:100FB000577115EB4C254FEA816141EA92114FEAD6
:100FC00082624FEAD13742EA901206FB07FC44F1F5
:100FD00000044FEA80604FEA1C4C0CFB0BF7D21B5D
:100FE00003FB0CF761EB07010CFB0EF7B0EB0740BE
:100FF00072EB17420CFB08F734BFA2EB0742B2EBCF
:10100000074261EB174115EB1C154FEA813141EAAC
:1010100092414FEA823242EA90424FEA80304FEAF0
:101020000C7644F1000448EA03434EEA0B484FF0C3
:10103000000EB2EB080C71EB030724BF6246394681
:101040004EEB0E0E4FF0000B0018524149414BEB96
:101050000B0BB2EB080C71EB03077BF1000B24BF09
:10106000624639464EEB0E0E4FF0000B001852410F
:1010700049414BEB0B0BB2EB080C71EB03077BF117
:10108000000B24BF624639464EEB0E0E51EA0207B2
:1010900018BF46F0010616EB0E7655F1000254F12A
:1010A000000103D5BDE88901BDE80088BDE88901DC
:1010B000BDE80048B619524141EB0101A3F101031B
:1010C000704780807F7E7D7C7B7A797877767675B5
:1010D0007473727171706F6E6E6D6C6C6B6A6A692D
:1010E0006868676666656464636362616160605FC7
:1010F0005F5E5E5D5D5C5C5B5B5A5A595958585740
:1011000057565655555554545353525252515150A7
:1011100050504F4F4F4E4E4D4D4D4C4C4C4B4B4BFA
:101120004A4A4A4949494848484747474746464640
:10113000454545444444444343434342424242417B
:101140004141002B9C4630D477002BD01CB54FEA90
:10115000370703B44FF010004FF01001BAF1000F41
:1011600006D0BCF1000FDCBF40F0080040F00801E1
:101170004FF000000FBCBDE810400BF1010BBBF1BC
:10118000010F08BF5FEA170722BF12F1010211F138
:1011900001014FF0004143F1000300F0004043EA39
:1011A00000007047F9D35708D0E746EA064613F126
:1011B000400F4FEA16461FDD13F1200FDFBF164325
:1011C0000A46002120335B42BED0C3F1200746EA25
:1011D000064602FA07F74FEA164646EA0706C3F143
:1011E000200722FA03F201FA07F721FA03F14FF080
:1011F000000342EA0702A7E746EA020646EA064675
:101200004FEA164646EA0106BCBF46EA0646360CD9
:101210004FF000034FF000024FF0000194E72DE97A
:10122000804C9A46934670B491E8380007C831EA7A
:10123000400C48BF34EA430C03D5FFF7E6FDFFF747
:1012400080FFF0BCBDE8008C2DE9804C9A469346A7
:1012500070B491E8380007C810F0804F08BF13F051
:10126000804F03D100F005F8FFF76BFFF0BCBDE83D
:10127000008C20F07F4780EA030023F07F4C07EBCF
:101280000C03A3F57C5300F00040A3F1FE0392F0A1
:10129000000F00F0B38095F0000F00F077802DE98B
:1012A00001494FEA11404FEA144621EA004800FB89
:1012B00006FC24EA064708FB06F607FB08F800FBD5
:1012C00007F718EB06484CEB164C4FEA124B18EB9D
:1012D00007484FEA15464CEB174022EA0B4E0BFB32
:1012E00006FC25EA06470EFB06F607FB0EFE0BFB87
:1012F00007F71EEB064E4CEB164C4FF000061EEBAC
:10130000074E4CEB174B18EB0B0840F1000018EBA5
:101310000E0B58EB000840F100008F1A4FF000014F
:101320003CBFC943661B14BFB5EB040C00213CBF96
:10133000C943F61B4FEA17444EEA8E0E27EA0445CE
:101340004FEA1C4704FB07622CEA074C05FB07F732
:101350000CFB05F604FB0CFC16EB074642EB1742B0
:1013600016EB0C4642EB1C421BEB060658EB020246
:10137000414146EA9E0601D5BDE80189B6195241B0
:1013800041EB0101A3F10103BDE801894FEA1445D6
:101390004FEA114724EA054621EA074C05FB07F40A
:1013A00006FB07F70CFB06F105FB0CFC11EB0741F4
:1013B00044EB17444FEA124711EB0C4144EB1C4439
:1013C00022EA074C05FB07F206FB07F70CFB06F6C3
:1013D00005FB0CFC16EB074642EB174216EB0C46DE
:1013E00042EB1C456A1854F1000148BF7047B6191A
:1013F000524141EB0101A3F10103704795F0000F49
:1014000037D04FEA11424FEA144721EA024624EA54
:10141000074C02FB07F106FB07F70CFB06F402FB87
:101420000CFC14EB074441EB17414FEA154714EB52
:101430000C4441EB1C4125EA074C02FB07F506FB77
:1014400007F70CFB06F602FB0CFC16EB074645EB18
:10145000174516EB0C4645EB1C42121951F10001E1
:1014600048BF7047B619524141EB0101A3F1010396
:1014700070474FEA14454FEA114724EA054621EA2E
:10148000074C05FB07F106FB07F70CFB06F24FF0D4
:10149000000605FB0CFC12EB074241EB174112EB77
:1014A0000C4251EB1C4148BF7047921841EB0101BF
:1014B000A3F101037047000070B50446006881681D
:1014C000C943C90717D1816821F00101816000F08B
:1014D000B1FD05460AE000BF00F0ACFD401B02284C
:1014E00004D920688068C043C00706D0206880689F
:1014F000C043C007F0D0002070BDA06A40F01000CB
:10150000A062E06A40F00100E062012070BD0000CE
:10151000F8B500260446009600688168C943C907EB
:101520002DD0816841F0010181601648164900689C
:10153000B0FBF1F000E0401E00900028FBD100F06D
:1015400079FD054616E000BF00F074FD401B02283F
:1015500010D920688068C043C0070BD0A06A40F053
:101560001000A062E06A40F00100E06284F82460AC
:101570000120F8BD20688068C043C007E4D1002086
:10158000F8BD00002C00002040420F00FEE70000E4
:101590000FB4164B10B5187059605A803D2205A93A
:1015A0001348FEF743FF9DF85110114800F83D1F06
:1015B0009DF8521041709DF8531081709DF85410A1
:1015C000C1709DF8551001719DF8561041719DF83C
:1015D000571081719DF85810C1719DF85910017212
:1015E0009DF85A10417210BC5DF814FB04000020F5
:1015F000300000202DE9F0410025114C2E46012736
:101600006188606800F00CFD0028F9D01E2002F00F
:1016100045F86188606800F003FD10B107EB4500F4
:1016200000E06800C5B26188606800F0F9FC00283D
:10163000F9D1761C082EE3DB2846BDE8F0810000D6
:10164000040000202DE9FC5F044600F0ADF800F036
:10165000E7F8514800264FF0010B00786F4601284B
:1016600019D000284AD10025FFF7C4FF78556D1C1A
:10167000052DF9DB9DF800009DF801109DF8022072
:101680009DF8033001441A4411449DF80420C9B266
:101690008A4239D034E00025FFF7ACFF78556D1C45
:1016A000052DF9DB9DF800009DF8011042189DF80A
:1016B00002009DF8031043181A449DF80430D2B27A
:1016C00093421DD1354D84F808B07F2804D90846CF
:1016D00003F028FE324905E0BDF8020040BA03F0ED
:1016E00021FE294603F05CFD2060BDF8000040BAF1
:1016F00003F018FE294603F053FD6060BDE8FC9F2F
:10170000266066602672F9E703F00CFE60609DF8C3
:10171000020003F007FEDFF88C9020600025E8430C
:1017200003F039F98A4606463246534600204946B8
:1017300002F0F0F802F0BCFE9DF80310C5F10708B6
:10174000074621FA08F101F0010003F0EBFD3946EC
:1017500003F0FCFD216803F0C1FC206032465346D3
:101760000020494602F0D6F802F0A2FE9DF80110D2
:10177000064621FA08F101F0010003F0D3FD3146DD
:1017800003F0E4FD616803F0A9FC6D1C6060082DA6
:10179000C5DB84F808B0B1E7040000200000204158
:1017A000000020C10000244010B5012000F01CF80A
:1017B0000C4C00226188606800F037FC207810B97A
:1017C000142000F02BFB2078012801D100F026FB2B
:1017D00001226188606800F028FCBDE810401E20EE
:1017E00001F05CBF040000201FB5002100910191B1
:1017F00002910A4A0391012160B1012809D1508860
:10180000CDE900010220CDE902106946506800F0E0
:1018100017FB1FBD508802910090F6E704000020DE
:1018200010B50020FFF7E0FF064C6188606800F00B
:10183000F7FB0028F9D06188606800F0F1FB002810
:10184000F9D110BD04000020704700002DE9F047D9
:101850000446084603F016FC154A164B03F002F93D
:1018600005468846204603F00DFC89460446124A88
:10187000124B03F0F7F807460E4620464946002271
:101880004FF0804302F046F80D4A0E4B03F0EAF8A1
:101890003A46334602F03EFE0B4A0C4B02F03AFE4B
:1018A0002A46434602F036FEBDE8F04702F000BE8D
:1018B0007B14AE47E17A64BFF697DD9387859ABFC4
:1018C0002D431CEBE2363A3F9FABADD85F76F73F36
:1018D000F8B500250446009590F82400012808D0AA
:1018E000012084F824002046FFF7E6FD060002D020
:1018F00053E00220F8BDA06A20F4885040F00200B6
:10190000A062022000F0B0FD26490968B1FBF0F0AA
:10191000400000E0401E00900028FBD12046FFF769
:10192000F7FD2068816841F00801816000F082FBCA
:10193000074608E000F07EFBC01B0A2803D9206898
:101940008068000715D4206880680007F2D42068FA
:10195000816841F00401816000F06CFB074612E0F1
:1019600000F068FBC01B0A280DD92068806840077A
:1019700009D5A06A20F0020040F01000A06284F8AF
:1019800024500120F8BD206880684007E8D4A06A90
:1019900020F0020040F00100A06284F8245030469C
:1019A000F8BD00002C000020F8B50024009490F849
:1019B00024202546012A12D0012280F824204A68DA
:1019C0001F23072A0DD20668776B521E02EB820294
:1019D00093409F430B6893401F43776319E00220B5
:1019E000F8BD06680D2A0AD2376BD21F02EB8202BD
:1019F00093409F430B6893401F43376309E0F76AA6
:101A00000D3A02EB820293409F430B6893401F43C1
:101A1000F7620A68072306680A2A0AD3F7680A3AAF
:101A200002EB420293409F438B6893401F43F76051
:101A300008E0376902EB420293409F438B68934072
:101A40001F4337610A68102A01D0112A20D1124B96
:101A500002689A4217D193681B0219D4936843F421
:101A6000000393600968102912D10C490C4A0968D7
:101A7000B1FBF2F101EB8101490000E0491E009148
:101A80000029FBD104E0816A41F020018162012438
:101A900080F824502046F8BD002401402C0000208E
:101AA00040420F000068C06C704700002DE9F04113
:101AB0004FF0000704003D467ED0A06A002628B9FA
:101AC000E66284F82460204600F07EF82046FFF7A6
:101AD000F3FCA16AC90600D420B1A06A40F010004E
:101AE000A06269E0A16A21F4885141F00201A1627B
:101AF0006268E169237B0A4347EA43010A43A1681C
:101B00004FF48077B94209D0012907D05FF0000176
:101B100094F814C0BCF1010F02D00AE03946F7E78F
:101B2000F3B1A36A43F02003A362E36A43F0010325
:101B3000E3622368D3F804C02CF4694C4CEA010C2E
:101B4000C3F804C021688B68DFF870C003EA0C0397
:101B500013438B60A168B9420BD0012909D00CE076
:101B6000DFF85CC0A3690CEB43330B4343F4006123
:101B7000DFE7218A0D05A5F580152168CB6A23F4DE
:101B800070032B43CB62216889680E4B1940914248
:101B900008D1E662A16A21F0020141F00101A162CF
:101BA000BDE8F081A06A20F0020040F01000A062C1
:101BB000E06A40F00100E0620120F1E7FDF7E1FF9B
:101BC00000E0FFFFFE0E1FFF00B585B00021009171
:101BD00001910291039100680E49884218D10E4884
:101BE000816941F400718161816901F4007104919E
:101BF000816941F0040181618069694600F0040057
:101C000004900120009003200190044800F018F98E
:101C100005B000BD00240140001002400008014052
:101C20002DE9F84300270D460446009700F002FA1C
:101C3000804620688168C90508D5A06A40F0200068
:101C4000A06284F824700120BDE8F8834168C905CA
:101C500003D4C06A10F4700F2AD0022000F004FCF4
:101C60003B490968B1FBF0F62068036939490B422A
:101C70004FEA61014FEAA1121FD1C3684FEA611C0C
:101C800013EA0C0F19D103690B4225D1C068104229
:101C900022D1142023E0681C0AD02DB100F0CAF92B
:101CA000A0EB0800A84203D920680068800725D56A
:101CB000206800688007EED52DE003690B4202D151
:101CC000C168114206D0026923490A4206D1C068A0
:101CD000084203D1542002E0292000E0FC204643C2
:101CE000009816E0681C11D02DB100F0A3F9A0EB0C
:101CF0000800A8420AD90098B04207D2A06A40F072
:101D00000400A06284F8247003209DE70098401C22
:101D10000090B042E6D321686FF012000860A06A1C
:101D200040F40070A06220688068C0F34240072839
:101D30000CD1207B50B9A06A20F48070A062A06A08
:101D4000C00403D4A06A40F00100A06200207BE739
:101D50002C000020244992244992240070B50446A6
:101D600090F8240001280DD0012084F8240020469A
:101D7000FFF7CEFB02004FF0000005D084F82400EE
:101D8000104670BD022070BDA16A40F20123994344
:101D900041F48071A1621F4D23681F49AB4218D1E5
:101DA0000E6816F4702F14D0A66A46F48016A66248
:101DB0000E68760505D5A66A26F4005646F48056C8
:101DC000A662A66AF6040AD5E66A26F00606E66268
:101DD00006E0A66A26F48016A6625E68E9E7E0627D
:101DE00084F824006FF00200186020688368C3F351
:101DF0004243072B05D1A84208D1096811F4702F7E
:101E000004D0816841F480118160B9E7816841F4B0
:101E1000A001F9E7002801400424014070B5044600
:101E200000F008F90546601C02D00448007804441C
:101E300000F000F9401BA042FAD370BD2000002042
:101E40002DE9F84FDFF8B891002409F1040A0AF1EE
:101E5000040B23460F270BF1040EC9E00125A54012
:101E60002A40AA427DD1674ED1F804C0ACEB0608E7
:101E7000B44532D014DCBCF1030F3AD009DCBCF11C
:101E8000000F2AD0BCF1010F1CD0BCF1020F31D1E0
:101E90001DE0BCF1110F17D0BCF1120F2AD119E0CF
:101EA000B8F5881F19D006DCB8F5803F15D0B8F515
:101EB000801F1FD111E0B8F5001F0ED0B8F5041F28
:101EC00018D10AE0CB6815E0CB681B1D12E0CB6887
:101ED00008330FE0CB680C330CE08B682BB1012B7F
:101EE0004FF0080303D0456104E0042302E00561DC
:101EF00000E00023FF2A01D8064601E000F10406B5
:101F00004FEA840501D9A5F12005D6F8008007FA2B
:101F100005FC28EA0C0803FA05F548EA0508C6F8A6
:101F200000804D68ED0062D5374DAE6946F0010680
:101F3000AE61AD6924F0030605F001050095334D4F
:101F400006EB050CDCF80850A607360F07FA06F872
:101F500025EA0805DFF8B880404503D14FF00008B6
:101F600017E044E0DFF8AC80404502D14FF00108B3
:101F70000FE0DFF8A480404502D14FF0020808E0EE
:101F8000DFF89880404502D14FF0030801E04FF0A0
:101F9000040808FA06F848EA0508CCF808804D68F5
:101FA000D9F80060ED034D4601D5164300E0964395
:101FB0002E604D68DAF80060AD03554601D5164332
:101FC00000E096432E604D68DBF80060ED025D4650
:101FD00001D5164300E096432E604D68DEF80060A0
:101FE000AD02754601D5164300E096432E60641C91
:101FF0000D682A46E5407FF431AFBDE8F88F000058
:1020000000040140000011100010024000000140D7
:1020100000080140000C0140001001400014014084
:102020008068084000D0012070470AB10161704704
:102030000904FBE701488068704700002000002089
:1020400070B5040025D094F83D00002520B984F82F
:102050003C50204600F04EF9242084F83D002068D2
:10206000016821F0010101602068016841F400412C
:1020700001602068016821F40041016000F064FB08
:102080004D4A6168914201D84C4900E04C49884270
:1020900001D2012070BD4B492368B0FBF1F15E68AD
:1020A00026F03F060E435E606368934206D94FF404
:1020B000967359434FF47A73B1FBF3F12368491CCB
:1020C0001E6A26F03F06314319626168914210D8BA
:1020D0004900401EB0FBF1F2521CC2F30B02042A6D
:1020E00001D2042022E0B0FBF1F0401CC0F30B0051
:1020F0001CE0A268F2B301EBC10303EB0116431E1F
:10210000B3FBF6F35B1C43F480431B0549D092B349
:1021100001EBC10202EB0111401EB0FBF1F0401CCB
:10212000C0F30B0040F4804040F400402168CA69CD
:102130004CF6FF739A431043C861D4E9071001437A
:102140002068026822F0C00211430160D4E9030153
:1021500001432068826848F2FF339A43114381604B
:10216000D4E9050108432168CA6822F0FF02104340
:10217000C86001E00EE016E02068016841F001014E
:1021800001602564202084F83D00256384F83E50DA
:10219000002070BD01EB4106431EB3FBF6F35B1C50
:1021A000B3E70120C2E701EB4101401EB0FBF1F0B3
:1021B000401CC0F30B00B7E7A086010080841E001E
:1021C00000093D0040420F002DE9F84F1F469046A0
:1021D0008A460446DDF82890FFF72CFF054694F860
:1021E0003D0020287FD11923012240492046009537
:1021F00000F010FF002876D194F83C00012872D03E
:10220000012084F83C0020680168C90703D10168F7
:1022100041F0010101602068016821F40061016062
:10222000212084F83D00102084F83E00002626641A
:10223000C4F824806785608D20852D48E0622B4698
:102240004A465146204600F071FE90B92068416927
:102250008069009036E02A464946204600F059FF42
:1022600050B1206C042804D12068016841F4007149
:1022700001600120BDE8F88F606A2168007808617C
:10228000606A401C6062618D491E6185218D491E16
:1022900089B2218522685369DB435B070BD451B1B6
:1022A00000781061606A401C6062608D401E60852D
:1022B000208D401E20852A464946204600F084FE97
:1022C0000028CED1208D0028C5D154F83D0B0168DF
:1022D00041F400710160202004F81E09E67766775A
:1022E0000020C7E7FFE70220C4E70000020010005B
:1022F0000000FFFF10B586B000210091019102910E
:1023000003910068104988421BD1104CA06940F02D
:102310000800A061A069694600F0080004904FF42D
:102320004060009012200190032003900848FFF7BE
:1023300087FDE06940F48000E061E06900F480001E
:10234000049006B010BD000000580040001002408C
:10235000000C014002488168027811448160704796
:1023600020000020074810B5016841F0100101600D
:10237000032000F067F80F2000F006F800F024F8C2
:10238000002010BD0020024070B50D4D04464FF4F2
:102390007A712878B1FBF0F00A490968B1FBF0F0D6
:1023A00000F0B8FB48B9102C07D200222146501E7D
:1023B00000F028F800206C6070BD012070BD0000A6
:1023C000200000202C0000200C4808B5816941F055
:1023D00001018161816901F001010091C16941F050
:1023E0008051C161C06900F080500090044841688C
:1023F00021F0E06141F00071416008BD0010024031
:1024000000000140F0B40E4B1B680C46C3F30223DE
:10241000C3F10705042D00D90425191D072901D290
:10242000002300E0DB1E012606FA05F1491E2140CB
:1024300099409E40761E16403143F0BC01F048B9E9
:102440000CED00E0064900F0070208684FF6FF03B4
:10245000184040EA0220034A104308607047000019
:102460000CED00E00000FA0510B529A401461DCCD2
:1024700086B08DE81D002AA02A4C00680490002038
:10248000012923D002293AD010291DD16168226880
:10249000D20119D5C1F38342C9031DF8020009D541
:1024A000616804AAC1F34041515C1F4AB2FBF1F1DB
:1024B000484301E01D4948436168490204D4400093
:1024C0005FF00301B0FBF1F006B010BD226AC2F369
:1024D0000121012903D1920701D5C803F4E702299C
:1024E00005D1626A920702D549F64040ECE703291C
:1024F000EAD121688903E7D54FF22440E4E700F0F0
:1025000033F96168C1F38131491C4900DAE7000001
:1025100002030405060708090A0B0C0D0E0F101024
:10252000010200000010024000127A0000093D0084
:102530002DE9F84305460078354CC00754D0E069D2
:102540000026C00008D4E06940F08050E061E069F6
:10255000012600F0805000902E480168C90512D471
:102560000168804641F480710160FFF763FD074612
:1025700005E000BFFFF75EFDC01B642823D8D8F834
:102580000000C005F6D5206A10F4407021D0A9885B
:1025900001F4407181421CD0206A1F49012220F4BD
:1025A00040700A6000220A602062C00711D0FFF765
:1025B00041FD074641F2883808E000BFFFF73AFDC9
:1025C000C11B414502D90320BDE8F883206A80077A
:1025D000F4D5206A696820F44070084320621EB177
:1025E000E06920F08050E0612878800705D56068B8
:1025F000A96820F44040084360602878C00605D5EB
:102600006068E96820F48000084360600020DBE730
:102610000010024000700040400442422DE9F047A3
:102620000F46050061D0434E306800F00700B84205
:1026300009D2306820F0070038433060306800F07D
:102640000700B84251D128683B4C810712D540079A
:1026500003D5606840F4E06060602878000703D527
:10266000606840F4605060606068A96820F0F00025
:10267000084360602878C00728D06868012810D017
:102680002168022810D0890700292EDA616821F01C
:10269000030101436160FFF7CDFC804641F28839B8
:1026A0000DE021688903EFE78901EDE7FFF7C2FC40
:1026B000A0EB0801494502D90320BDE8F087606816
:1026C000696800F00C00B0EB810FEFD1306800F0CA
:1026D0000700B8420BD9306820F00700384330605B
:1026E000306800F00700B84201D00120E5E7287803
:1026F000400705D56068E96820F4E0600843606041
:102700002878000706D56068296920F4605040EAFF
:10271000C100606000F038F86168084AC1F3031135
:10272000515CC8400649086006480068FFF72CFE67
:102730000020C2E70020024000100240C2560008FC
:102740002C00002024000020044805490068496846
:10275000044AC1F30221515CC84070472C0000209C
:1027600000100240D2560008044805490068496834
:10277000044AC1F3C221515CC84070472C000020BC
:1027800000100240D256000812A185B00FC98DE892
:102790000F0014A0144A006804905168134801F017
:1027A0000C03042B10D0082B0ED1C1F38343C903B3
:1027B0001DF803000AD5516804AAC1F34041515CD9
:1027C0000A4A5043B0FBF1F005B07047084948434E
:1027D000FAE7000002030405060708090A0B0C0DBE
:1027E0000E0F1010010200000010024000127A00CB
:1027F00000093D002DE9F84F040070D02078C04D4D
:10280000C00749D06868C0F38100012807D0686814
:10281000C0F38100022809D16868C00306D5286882
:10282000800339D560680028E7D035E06068B0F5EE
:10283000803F0BD010B1B0F5A02F11D0286820F444
:1028400080302860286820F4802002E0286840F466
:1028500080302860606890B1FFF7ECFB06460AE024
:10286000286840F480202860F0E700BFFFF7E2FB13
:10287000801B642873D828688003F7D50CE0FFF725
:10288000D9FB064605E000BFFFF7D4FB801B642898
:10289000F0D828688003F7D420789A4E80074FF04C
:1028A00001094FF0000839D5686810F00C0F07D007
:1028B0006868C0F38100022809D16868C00306D4A3
:1028C0002868800714D52069012808D110E0206904
:1028D000B0B1C6F80090FFF7ADFB074605E00AE18E
:1028E000FFF7A8FBC01B0228C4D828688007F7D5CB
:1028F0002868616920F0F80040EAC10028600DE016
:10290000C6F80080FFF796FB074604E0FFF792FB4E
:10291000C01B022823D828688007F7D42078000736
:102920002CD57948A169D9B1C0F80090FFF782FB96
:10293000074604E0FFF77EFBC01B02280FD8686A39
:102940008007F7D571484FF4FA510068B0FBF1F0F9
:10295000009000BF0098411E0091FAD20EE080E086
:10296000C0F80080FFF766FB074604E0FFF762FB54
:10297000C01B022875D8686A8007F7D42078400702
:1029800060D5E8690027C00008D4E86940F08050AD
:10299000E861E869012700F0805000905C48016818
:1029A000C90513D40168834641F480710160FFF7C3
:1029B00041FB824606E000BFFFF73CFBA0EB0A00AC
:1029C00064284ED8DBF80000C005F5D5E068012882
:1029D0000AD008B1052813D0286A20F00100286227
:1029E000286A20F0040002E0286A40F00100286212
:1029F000E06841F2883B98B1FFF71CFB82460BE090
:102A0000286A40F004002862EEE700BFFFF712FBDF
:102A1000A0EB0A0159455AD8286A8007F6D50CE080
:102A2000FFF708FB824605E0FFF704FBA0EB0A0175
:102A300059454CD8286A8007F6D41FB1E86920F0C0
:102A40008050E861E06988B36968C1F381010229B7
:102A500044D00228C6F8608004D0FFF7EBFA0446A1
:102A600038E034E0FFF7E6FA074604E0FFF7E2FA61
:102A7000C01B02282BD828688001F7D4206AB0F543
:102A8000803F05D16868A16820F400300843686081
:102A9000D4E908010843696821F4741108436860A7
:102AA000C6F86090FFF7C6FA044606E025E000BFCE
:102AB000FFF7C0FA001B022809D828688001F7D563
:102AC0001BE000BFFFF7B6FA001B022802D9032063
:102AD000BDE8F88F28688001F4D40EE00128F7D013
:102AE0006868226A00F48031914204D1616A00F47E
:102AF0007010884201D00120EAE70020E8E70000DA
:102B00000010024000004242800442422C0000209B
:102B10000070004010B5401EB0F1807F01D301204D
:102B200010BD4FF0E02460610F21601700F0D0FD70
:102B30000020A06107202061002010BD70B590F832
:102B40003C20012A26D0012480F83C40022280F853
:102B50003D2003685A689D6822F070060A68324377
:102B60005A600D4B02689A4208D0B2F1804F05D0EE
:102B70000A4B9A4202D00A4B9A4204D1496825F086
:102B800080031943916080F83D40002180F83C109B
:102B9000084670BD022070BD002C014000040040BA
:102BA0000008004010B5040003D094F83D0010B1B7
:102BB00007E0012010BD002084F83C00204600F012
:102BC0001FF8022084F83D00211D206800F056FC0B
:102BD000012084F8460084F83E0084F83F0084F821
:102BE000400084F8410084F8420084F8430084F8EF
:102BF000440084F8450084F83D00002010BD00002A
:102C000008B500680649884208D10648816941F440
:102C100000618161806900F40060009008BD0000DF
:102C2000002C01400010024090F83D10012901D015
:102C300001207047022180F83D1000680B4988424E
:102C400008D0B0F1804F05D00949884202D0094927
:102C5000884204D1816801F00701062903D0016888
:102C600041F001010160002070470000002C01408C
:102C7000000400400008004001680A6A41F2111394
:102C80001A4207D10A6A9B101A4203D10A6822F03D
:102C900001020A60012180F83D100020704770B5E4
:102CA000044690F83C00012817D0012584F83C50D8
:102CB000022084F83D002068826822F0770222F426
:102CC0007F4282600868502830D00DDC20284DD02B
:102CD00005DC98B310283BD148E0022070BD3028B5
:102CE00044D0402834D139E0602828D0702806D05C
:102CF000B0F5805F2CD0B0F5005F29D10AE0CB6839
:102D0000D1E90121206800F0EFFB2068816841F0E3
:102D1000770109E0CB68D1E90121206800F0E4FBEC
:102D20002068816841F48041816011E0CA68496887
:102D3000206800F0EBFB5021206807E016E0CA682D
:102D40004968206800F0F3FB6021206800F0D6FBA2
:102D500084F83D50002084F83C0070BDCA68496882
:102D6000206800F0D3FB40212068EFE7226801468D
:102D70001046EBE770B5040004D094F83D00002540
:102D800010B106E0012070BD84F83C50204600F0F0
:102D900023F8242084F83D002068C16821F4005104
:102DA000C160204600F0D6FB2068016921F4904103
:102DB00001612068416921F02A0141612068C168F0
:102DC00041F40051C1602564202084F83D0084F85E
:102DD0003E00002070BD000030B585B00024009496
:102DE00001940294039400681449884224D1144841
:102DF000816941F480418161816901F480410491DC
:102E0000816941F00401816180690E4D00F0040088
:102E100004904FF400700090022001900320039072
:102E200069462846FFF70CF82815CDE900046946E5
:102E300028460294FFF704F805B030BD0038014081
:102E400000100240000801402DE9F843044690F8C4
:102E50003D001F4616460D4620284CD1C5B1BEB1D7
:102E600094F83C00012846D0012084F83C004FF043
:102E70000008C4F84080212084F83D00FFF7DAF80C
:102E8000A6848146E684A068B0F5805F03D004E0A4
:102E90000120BDE8F883206928B12E465FF00005C7
:102EA00084F83C800EE00026FAE78021204600F0FE
:102EB000ADFBA0B9AEB116F8010B21684860E08CFB
:102EC000401EE084E08C4B464FF000020097002843
:102ED000EBD14FF04001204600F098FB30B10320C9
:102EE000D7E735F8020BC0F30800E6E7202084F8A6
:102EF0003D000020CDE70220CBE7FEE701684A69EC
:102F0000D24352050FD46FF480624A61002140F829
:102F1000301F202242738173026942F00402026171
:102F2000017301207047002070470000F8B5044687
:102F3000C06A1E460D461746082807D0012805D04E
:102F400010F5803F02D0206B122804D12068016860
:102F500041F480710160134600224FF001112046B8
:102F6000009600F057F840B120680068C00502D50F
:102F70004FF4007020640320F8BD2069B0F5804F45
:102F80000ED00620216800EAD51040F0F00008615C
:102F900033463A460B49204600F070F878B902E013
:102FA00005F0FE0000E0E8B22168086105493346FB
:102FB0003A46891F204600F061F80028DCD0012045
:102FC000F8BD00000800010070B516460D46044625
:102FD0000DE02046FFF792FF08B1012070BD681C8C
:102FE00005D0FFF727F8801BA84207D835B1206825
:102FF0004069C0434007ECD4002070BD002044F875
:10300000300F20216173A073216941F020012161FB
:103010002073E2E72DE9F0471E4690460D46044630
:10302000C1F30747DDF8209008E0701C06D0FFF7D9
:1030300001F8A0EB0900B0420FD876B12068012F4B
:1030400018D0806925EA00000004000C14D000218B
:103050004145EAD00020BDE8F087002044F8300F59
:1030600020216173A073216941F020012161207347
:103070000120F0E74069E5E70121E9E72DE9F047A4
:103080009A4691460E46044600254FF02008C1F3AB
:10309000074725E020684069C043400514D42068F4
:1030A000016841F40071016021686FF4806048613B
:1030B000256384F83D8084F83E50206C40F0040085
:1030C000206484F83C501FE0B9F1FF3F08D0FEF7C0
:1030D000B1FFA0EB0A0149450CD8B9F1000F09D0A6
:1030E0002068012F13D0806926EA00000004000C3C
:1030F0000BD0CFE744F8305F84F80D80A5732069CA
:1031000040F02000206125730120BDE8F087406970
:10311000EAE770B516460D4604460DE02046FFF777
:10312000EDFE08B1012070BD681C05D0FEF782FFDE
:10313000801BA84207D835B120684069C04300060B
:10314000ECD4002070BD002044F8300F20216173C2
:10315000A073216941F0200121612073E2E70000A2
:10316000154910B508603220FEF758FE332000F0F4
:1031700047F80520FEF752FE322000F041F8052006
:10318000FEF74CFE202000F03BF80520FEF746FE3F
:10319000062000F035F80C2000F032F8142000F082
:1031A0002FF8282000F02CF8012000F029F8BDE8C5
:1031B0001040022000F024B8000000201CB500F0F0
:1031C000F00141F00D028DF8042041F009010001E9
:1031D0008DF8051040F00D018DF8061040F0090043
:1031E0008DF80700642000900448042301AA0068B9
:1031F00001790068FEF7E8FF1CBD00000000002018
:103200007CB500F0F005040145F00C008DF80400D9
:103210000120FEF703FE45F008008DF8050044F09C
:103220000C008DF806000120FEF7F8FD44F00800C0
:103230008DF80700642000900448042301AA006868
:1032400001790068FEF7C0FF7CBD0000000000208F
:1032500010B5044602E0641CFFF7B0FF2078002898
:10326000F9D110BD102801D33030C0B240F0800039
:10327000FFF7C6BF2DE9F0411D460B460446114637
:103280001846FEF7E3FA07462046FEF721FB2046E4
:10329000FEF764FD4FF47A712046FEF7C1FC20462C
:1032A000FEF700FC80B201F08DFB4FF06632194B47
:1032B00001F0D8FB0022184B01F0E8F901F0F8F812
:1032C00004460146154802F00DF9154902F03EF892
:1032D000214601F065FF0646384601F0D3FE114A4B
:1032E000114B01F0BFFB07460C46304601F0CAFE09
:1032F0003A46234601F0CAF90C4A0D4B00F00AFB8E
:103300000C4A0D4B01F0AEFB01F018FB2880BDE824
:10331000F081000066660A4000FEAF400000A04059
:1033200000007A4441F163CC0D73C240C3D32B65D6
:1033300019E206C0A245B6F3FD685A403EB5002426
:1033400011480094019402940E4984600160047352
:103350000475012505614FF460214460C161FEF7E9
:10336000A5FB08B172B6FEE707200094CDE9015035
:1033700069460548FEF718FB002801D072B6FEE743
:103380003EBD0000002401407800002010B586B04A
:103390000024174800940194029403940494134960
:1033A000059401604721C0E901144FF6FF71C0E99F
:1033B000031444618461FFF7F5FB08B172B6FEE7C0
:1033C0004FF48050009069460948FFF768FC08B147
:1033D00072B6FEE7049404A905480594FFF7AEFB16
:1033E000002801D072B6FEE706B010BD002C0140E7
:1033F000FC000020FEE7FEE770477047FEF7AABF1B
:1034000030B593B028216846FDF742F814210AA888
:10341000FDF73EF8002501200F9510951195010448
:1034200012958DE8230004904FF4E010CDE90810C8
:10343000022407946846FFF7DDF908B172B6FEE78B
:103440000AA90F2081E831004FF48060CDE90D0515
:1034500002210AA8FFF7E2F808B172B6FEE74FF4BE
:10346000004011900F940FA8FFF762F8002801D0D8
:1034700072B6FEE713B030BD70470000F0B50268C9
:10348000164B174C174D4FF08047984205D0B84265
:1034900003D0A04201D0A84203D122F070064A68AE
:1034A0003243984205D0B84203D0A04201D0A8428E
:1034B00003D122F44074CA6822434C6922F080028E
:1034C000224302608A68C2620A688262984201D11D
:1034D0000969016301214161F0BD0000002C014038
:1034E000000400400008004010B5846842EA03224E
:1034F00024F47F440A432243826010BD826822F094
:1035000070020A4342F007018160704710B5036AF8
:10351000046A24F001040462846924F0F00444EA9B
:10352000021423F00A020A438461026210BD10B53E
:10353000036A23F0100303628369046A23F470436F
:1035400043EA023224F0A00343EA011182610162DE
:1035500010BD000070B5044600680169E26821F4FE
:103560004051114301612169A06808436169084322
:103570002168CA6841F20C639A430243CA6020681A
:103580004169A26921F44071114341611E492068DB
:10359000884202D1FFF7E8F801E0FFF7D5F800EB29
:1035A000C00101EB0012606864218000B2FBF0F3FF
:1035B000B3FBF1F36FF018067343B2FBF0F5B2FB07
:1035C000F0F605EB8305322303EB0515B5FBF1F5AA
:1035D000B6FBF1F605F0F00505EB0615B2FBF0F6CB
:1035E000B2FBF0F0B0FBF1F06FF01802504306EBC5
:1035F000800003EB0010B0FBF1F0216800F00F0039
:103600002844886070BD0000003801402DE9F04179
:10361000984617460E460446069D1DE0681C1BD0C2
:103620002DB1FEF707FDA0EB0800A84214D92068D1
:10363000C16821F4D071C1602068416921F00101A5
:103640004161202084F83D0084F83E00002084F889
:103650003C000320BDE8F0812068006836EA0000E5
:1036600004D00020B842D9D00020F3E70120F9E7C8
:10367000FEE7490050EAC12018BF04204A0D18BFD8
:1036800040F0010040F2FF72B2EB515F08BF40F022
:103690000200012808BF05207047000070B50B4CE0
:1036A000054600202168486221684FF6FF70C86215
:1036B000E0602046FFF7B8FA2068416AA942FCD3CF
:1036C000BDE870400148FFF7D7BA00003000002085
:1036D0000907090E002804DB00F1E02080F800143F
:1036E000704700F00F0000F1E02080F8141D7047D3
:1036F0002DE9F0414F1E00EBC7010446D1E900015E
:1037000015461E4637F006020DD02A46334601F014
:10371000A9F97F1E04EBC703D3E9002300F0FAFEEA
:1037200037F00602F1D1022F25D0042F13D0062F37
:1037300018BFBDE8F0812A46334601F093F9D4E979
:103740000A2300F0E7FE2A46334601F08BF9D4E95C
:10375000082300F0DFFE2A46334601F083F9D4E95E
:10376000062300F0D7FE2A46334601F07BF9D4E960
:10377000042300F0CFFE2A46334601F073F9D4E962
:10378000022300F0C7FE2A46334601F06BF9D4E964
:103790000023BDE8F04100F0BDBE0000002213464A
:1037A0001046014900F072BF0000F03F00F0B2BEC9
:1037B000002213461046114600F068BF40F2013265
:1037C00000204FF0E04101F036BF0000024A002027
:1037D000110701F030BF000001FDFFFF30380A285B
:1037E00001D201207047002070470000A4B0FEF70E
:1037F000B9FDFFF705FE4048816941F02001816174
:10380000816901F020010091816941F00401816129
:10381000816901F004010091816941F00801816131
:10382000806900F008000090FFF7B0FDFFF786FD0B
:1038300033483249002401604FF4E131C0E90114FA
:103840000C21C460C0E904418461C461FFF792FAAD
:1038500008B172B6FEE72A482A499C3801602A4915
:10386000C0E901144FF48041C0E90341446184611F
:10387000C4610462FEF7E4FB08B172B6FEE72049BA
:103880003D22483911A8FCF7D1FD1D48483810F8F1
:103890003D1F8DF8811041788DF8821081788DF868
:1038A0008310C1788DF8841001798DF885104179E5
:1038B0008DF8861081798DF88710C1798DF8881080
:1038C000017A8DF88910407A8DF88A00442212A975
:1038D0006846FCF7ABFD4FF480720C490120119B48
:1038E000FDF756FE0A48FFF73BFC00BF00F05EFD07
:1038F00000F022FDFAE7000000100240003801400D
:103900004401002000580040A0860100000C014046
:10391000180000202DE9F04D1D460C4698B01746C2
:1039200021F0004123F00043002814BF4FF0010CA8
:103930004FF0000C0CEB440CFE4A0CEB02064FEA75
:10394000620C66452BD33E0018BF012606EB4506E8
:103950001644F94A964222D3F84A53EA070C02D099
:10396000944205D148B918B000201146BDE8F08D49
:10397000002808BF4FF0000C01D04FF0010C0CEBF9
:10398000440212F5001F0AD8002F14BF4FF0010C9B
:103990004FF0000C0CEB450212F5001F07D918B0D0
:1039A0003A462B462146BDE8F04DFFF7FFBE002208
:1039B000DFF88CA3002CB8BF534526DADFF884C3A8
:1039C0006345A8BF022220DADFF870C39C451CDCE7
:1039D000DFF874C30CEB235CBCF1140F08DDCCF1F1
:1039E000340627FA06FC0CFA06F6BE420DD108E0B2
:1039F0005FB9CCF1140623FA06FC0CFA06F69E42D7
:103A000003D10CF00102C2F1020251EA000C19D1FB
:103A1000002D17DA002C18BF022A01D0012A07D086
:103A20000220FCF764FD18B0BDE8F04DFFF7B6BE0C
:103A30000220FCF75CFDFFF7B1FE18B081F00041F9
:103A4000BDE8F08DB7F1000C6CD1534525D104F1E0
:103A5000804212F5801201BF00280020B74918B03B
:103A600008BFBDE8F08DB548884207DC002DA1BF36
:103A70006046294618B0BDE8F08D07E0281E05DA3B
:103A800080F0004118B06046BDE8F08DAF49794440
:103A9000D1E9000118B0BDE8F08DDFF8A0C26345A0
:103AA00025D1002D1FDA19B1514512D1D8B909E03D
:103AB000002840F0EC82A24A214618B062F31E01B1
:103AC000BDE8F08D0020214618B060F31E01BDE86E
:103AD000F08D08DA18B02346BDE8F04D024600200C
:103AE000614600F0D3BD18B02146BDE8F08D5145C8
:103AF00018DAB5F1804F0DD0A5F1005CBCF1FF5C88
:103B000010D1B4F1000C0DDB18B06146BDE8F04DEA
:103B100000F0ECBB234618B00246BDE8F04D194654
:103B200000F0A0BF060024F0004C3BD1D9B15145B4
:103B300033D1002C06DD002DA1BF0020514618B066
:103B4000BDE8F08D002C01DD002D1BDB002C13DA0D
:103B5000002D11DB012A4FF0000014BF78497C4989
:103B600018B0BDE8F08D022A18BF002C0AD0012A37
:103B700008D1002C06DA0AE0002CB8BF002D11DABB
:103B8000012A04D0002018B00146BDE8F08D18B01D
:103B900000204FF00041BDE8F08DA1F14050B0F1A0
:103BA0007F601AD0012000EBE47050EA020421D0BB
:103BB000624C521E4FF0000B104304BF4FF0000B3D
:103BC000644C654883427CDD644A654893421FDD4E
:103BD000884217DB002D25DB37E0002C00DA4AB1E4
:103BE000022A0CBF01204FF0FF3018B0BDE8F04DA5
:103BF00000F0D1BE0120FCF77AFC18B0BDE8F04D12
:103C0000FFF7D6BD4D4A8A4202DC002D0ADC1CE0DB
:103C1000814202DA002D18DA04E0484B994220DD97
:103C2000002D12DD0220FCF762FCFFF7C7FD054600
:103C30000E46002253465846214600F013FF18B0A6
:103C400066F31E012846BDE8F08D0220FCF74FFC0C
:103C5000FFF7BCFD0A46214618B062F31E01BDE81D
:103C6000F08D00223046614601F022F980460E4672
:103C70006FF0010201F0DFFC4FF05532394B01F0DB
:103C800025F84246334600F0EDFE0022364B01F0A7
:103C90001DF882464246334604911046194600F00C
:103CA000E1FE5246049B00F0DDFE8A4600904FF094
:103CB000C0422E4B4046314600F0D4FE2C4A2B4BDE
:103CC00000E027E0CDE906015146009800F0CAFE69
:103CD00082460191274A284B4046314600F0C2FEF9
:103CE0005246019B01F0E4F882460B4602460591DC
:103CF000DDE9060100F00EFCDDE90623002688461A
:103D0000304601F0D5F85246059B00F0DFFF024631
:103D100000F07EB90020B1F5801F07DA3522304669
:103D2000614601F088FC06466FF0340000EB21503C
:103D300024E00000FFFF1F00FFFF0F000000F03F26
:103D40000000F07F0000404301FCFFFFD61C000094
:103D50000000F0FF0000F0BF0000E0410000F04371
:103D6000FFFFEF3F5555D53F0000E03F4715F73FB8
:103D7000FE822B6544DF5DF80BAE543EA0F2FF30AF
:103D80000190C1F3130040F07F6141F04051029176
:103D9000FE498842D8BF002004DDFD498142C8BFEA
:103DA000012001DD0D9008E000200D900198401CDD
:103DB00001900298A0F5801002900299F54878448D
:103DC0000B910D9900EBC100D0E900230F93304611
:103DD0000A920B9901F06CF8CDE90601DDE90A21A0
:103DE00030460F9B00F096FB02460B460020EA4946
:103DF00000F04CFC059102460B460090DDE90601FF
:103E000000F030FE1490E5488A464FF000087844F0
:103E10000299006812904FF0005040EA61010D983D
:103E20000F9B01EB804000F5002109910A9A12983E
:103E300001F03EF832460B9B00F048FF42465346E5
:103E400000F010FE0646029140465146099B129A28
:103E500000F008FEDDE9062300F038FF3246029B41
:103E600001F026F8059B009A00F0FCFD0091149AE1
:103E7000049053461046194600F0F4FD06460246EB
:103E8000C7480B46029106217844FFF731FCCDE983
:103E90000510029B32461046194600F0E3FDDDE9AD
:103EA000053200F0DFFD05910646534640461946AF
:103EB000149A00F02FFB009B049A00F0D3FD3246C9
:103EC000059B00F027FBCDE90510424653461046FE
:103ED000194600F0C7FD0022B24B02910A9000F093
:103EE00019FBDDE9053200F015FB0E464246AD4BED
:103EF000404600F0DDFF029B0A9A00F0D9FFDDE9A1
:103F0000053200F0E3FE424602910A903346104625
:103F1000514600F0A7FDCDE906015346149A0299D7
:103F20000A9800F09FFD8A46029033464246009967
:103F3000049800F097FD5346029A00F0EBFA82468F
:103F40000B4602460591DDE9060100F0E3FADDE9E2
:103F5000062300208846064600F0AAFF5246059B2D
:103F600000F0B4FE824609914FF060428E4B30461D
:103F7000414600F077FD049006918C4A8A4B5046EA
:103F8000099900F06FFD82460291894A894B3046BB
:103F9000414600F067FD5246029B00F0BBFA864B9B
:103FA0007B440D9A03EBC203D3E9002300F0B2FA7D
:103FB0000E900791019800F0EEFC0591DDE90613E3
:103FC00082460E9A049800F0A5FA7C4A7A440D9B2A
:103FD00002EBC303D3E900230093029200F09AFAA4
:103FE0005246059B00F096FA002688465246304617
:103FF000059B00F05DFF009B029A00F059FF069BB5
:10400000049A00F055FF079B0E9A00F05FFE0246EF
:1040100000200B4602903846294600F023FD8246D8
:1040200001912B4638461946029A00F041FF32466C
:10403000434600F017FD5246019B00F06BFA07461D
:104040008A46324643462946029800F00BFD054653
:104050000E463A46534600F05DFA594A8846914268
:1040600021DBA8EB020353EA000210D12A463346B3
:1040700000F01EFFCDE90401524A534B3846514629
:1040800000F048FADDE9042300F0EAFD21D2022025
:10409000FCF72DFAFFF792FB0A46214618B062F3AF
:1040A0001E01BDE8F08D494B28F000429A4210D322
:1040B000474A08EB020353EA00027FF4C6AD2A46E2
:1040C000334600F0F5FE3A46534600F0C9FD7FF650
:1040D000BCAD0022019228F000403E493E4A01EB6F
:1040E0002051824223DA481C4FF4801121FA00F05B
:1040F00040443A4AC0F30A517A44394BA1F2FF31A5
:10410000CB4020EA0303C0F3130040F48010C1F158
:104110001401C84012680190B8F1000FBCBF4042C2
:1041200001902846314600F0C3FE05460E462A4659
:1041300033463846514600F0EDF94FF0000842464C
:10414000284B4046059100F08DFCCDE90601264A3A
:10415000264B4046059900F085FC009102902A46C6
:1041600033464046059900F0A3FE3A46534600F018
:10417000ADFD1F4A1F4B00F075FC009B029A00F03A
:10418000C9F90746884602460B4635E08E9803007B
:104190007AB60B001E1900000000F03F561900000F
:1041A000841800000000084009C7EE3FFD033ADC18
:1041B000F5015B14E02F3EBE5C17000020170000E5
:1041C00000009040FE822B654715973C00CC904044
:1041D00000346F3F01FCFFFF0000E03F6C16000061
:1041E000FFFF0F00432EE63F396CA80C615C20BE38
:1041F000EF39FAFE422EE63FDDE9060100F08AF9CA
:10420000DDE9062305460E4600F052FE3A464346D7
:1042100000F05CFD0F462A463346009010461946D2
:1042200000F020FC824602462E4888460B460521B7
:104230007844FFF75DFA5246434600F013FC2A46E5
:10424000334600F043FD80468A463B4628463146C9
:10425000009A00F007FC3B46009A00F05BF90691DB
:10426000009000224FF080434046514600F020FE6F
:104270000F460C90424653462846314600F0F2FB6A
:104280003B460C9A00F002FA069B009A00F010FEE2
:104290002A46334600F00CFE0022134B00F016FDB8
:1042A000054601980E4601EB00510815002810DC68
:1042B00028463146019A01F0BEF9FFF7DAF90428E1
:1042C00008BFFFF783FA28463146019A01F0B3F997
:1042D00005460B4618B02A4658462146BDE8F04D23
:1042E00000F0C0BB0C1500000000F03F2DE9F041CC
:1042F00006460F4600F0F6FC041E0D4618BF0120CE
:10430000284320F00040C0F17F6000F1E040C00F82
:104310000ED0301C18BF0120384320F00040C0F1FF
:104320007F6000F1E040C00F04BF0120FCF7DFF820
:1043300020462946BDE8F081FEB5FDF77BFE154C11
:10434000A168401AB0F57A6F23D3134E706800F05D
:1043500099FE07460D46306800F094FE024620881C
:104360000097CDE901500B460CA106F12900FBF79F
:104370003DFF06F12900FCF73AF882B206F1290167
:104380004FF47A73A1F16D00FEF75EFDFDF752FE6A
:10439000A060FEBD0C00002088010020252E3166A3
:1043A0002D252E31662D2564000000002DE9FF41EA
:1043B000FDF740FE254E7168401A40F6B83188423C
:1043C00042D32348FDF73EF9214C207A00B3D4E9CB
:1043D00000123346A4F58870FEF74CFF606800F0C9
:1043E00051FE05460F46206800F04CFE0246DF20D5
:1043F000CDE902570B46009016A104F10900FBF726
:10440000F5FE328818A104F11900FBF7EFFE04E075
:104410000F4818A10930FBF7E9FE0120FEF7F0FE76
:104420000220FEF7EDFE0120FEF71CFF08480930D0
:10443000FEF70EFF1120FEF715FF05481930FEF7B5
:1044400007FFFDF7F7FD7060BDE8FF810C0000205D
:1044500088010020252E3166256343202020252E4B
:104460003166252500000000434F323A20256420A4
:1044700070706D0044485420526561642046616943
:104480006C00000010B500290AD00878002807D079
:1044900005487844FCF700FC002801D0002010BD3E
:1044A0000248784410BD0000921300008A130000F7
:1044B00021F00042A2F16052B2F5801F01F00043EA
:1044C00028BFD2F17F6C0BD95FEA001C43EAC2021D
:1044D00042EB507018BF704728BF20F001007047B2
:1044E000B2F5801FBCBF184670474FEA410C1CF55F
:1044F000001F02D2084600F0F0BF70B500F05CFB70
:1045000000000089FFF7F6BF4FF00040A0F58000E3
:104510007047000010B591EA030F48BF83F00043D5
:1045200000F1CE84841A71EB030C05D2121943EB0F
:104530000C03001B61EB0C01DFF824E14FEA11547E
:10454000A4EB135C1EEA430F18BF9EEA445F73D0CE
:1045500023EA0E03DCF1200E21EA045143F4801318
:1045600032D322FA0CFE10EB0E0023FA0CFE41EBC4
:104570000E01CCF1200E03FA0EFE10EB0E0051F1ED
:104580000001B1F5801FCCF1200E32D201EB0451B5
:1045900012FA0EF2BDE8104058BF7047401C38BFF9
:1045A0005FEA420218BF7047002814BF20F00100E4
:1045B00041F100014FEA410313F5001F38BF704776
:1045C000A1F1C04100F046BB012A43EB0302ACF16C
:1045D000200CDCF11F0E32BF4FF0000E23FA0CF35B
:1045E00010EB030041EB0451B4EB115FD0D0A1EB11
:1045F000045101F5801149085FEA300001EB0451D4
:104600000ED350F1000038BF12FA0EFE08D1BDE8FB
:104610001040C9E7401C38BF5FEA4202CAD1C3E775
:10462000BDE810404FEA410313F5001F38BF704743
:10463000A1F1C04100F00EBB9EEA445F08D011EA30
:104640005E0FBDE8104004BF01F00041002070473C
:10465000BDE8104070B500F0AFFA00BF64FBBE3E8D
:104660000000E0FF02494FF0000000F0B2BF00BFC1
:104670000000F87F491058BFC1F140415B1058BF9E
:10468000C3F140438B42EFF3008070472DE9C041F6
:1046900030B4DFF8A0C23CEA111418BF3CEA13148E
:1046A00000F0EC8081EA03051CEA111444EAD57499
:1046B00018BF1CEA131500F0C780A4EB05044FF0E7
:1046C000004545EAC12145EAC32341EA505143EA86
:1046D000525304F17F74994204F500344FEAC0202C
:1046E0004FEAC22208BF904200F09C804FEA136557
:1046F0000FF24016765D4FEA134506FB05F7C7F14A
:10470000807706FB07F74FEAD737A7FB03687642A7
:10471000C8F58038A7FB06CE38BFA8F1010807FB13
:1047200008E64FF0000EA6FB028CE6FB03CEDCF1A0
:10473000000CCEF1004E38BFAEF1010EA6FB0C58B6
:104740004FF000074FF00005E6FB0E87A1FB08C6FF
:10475000A0FB07CE16EB0E0645F10005E1FB076551
:1047600015F1E04E7EBFA4F580345FEA46066D4148
:1047700016F1800745F100054FEA17274FEA066654
:1047800047EA0567A6F1DE46B6F1805F4FEA1525D8
:104790001FD9384624F0010C05EBC471BCF1FE6F43
:1047A00001EB0C1102D8F0BCBDE8008124425CBFD3
:1047B00001F5801E9EEAC47F02D4F0BCBDE80081F2
:1047C000244238D4F0BCA1F1C041BDE8004100F062
:1047D00041BA4FEAD22242EA43524FEAD323A7FB1F
:1047E00002864FEAD02040EA415007FB03661EEAEA
:1047F0000E0F4FEAD12105FB026658BFA6EB00560B
:10480000B6EB00564FEA520E4EEAC37E18EB0E0E80
:1048100056EB530EBDD518EB02085E417F1C55F1D7
:104820000005B6E74FF480154FF000074FF0000683
:104830004FF00008ADE7F0BC4FF0000001F1C041BF
:1048400001F00041BDE8008111EA0C1F0CEA1315CC
:1048500000D00CE013EA0C1F00F025804FF00000A0
:10486000F0BC81EA030101F00041BDE80081F0BC29
:10487000BDE8004181EA030100F0ECB9F0BCBDE8FD
:10488000004170B500F098F9097EFC3E00F007B8D1
:1048900081EA03014FF0000001F00041704781EA16
:1048A000030100F0D7B9F0BCBDE800414FF00000B3
:1048B00021497047FFFDFBF9F7F5F4F2F0EEEDEB5F
:1048C000E9E8E6E4E3E1E0DEDDDBDAD8D7D5D4D30E
:1048D000D1D0CFCDCCCBCAC8C7C6C5C4C2C1C0BF5A
:1048E000BEBDBCBBBAB9B8B7B6B5B4B3B2B1B0AF60
:1048F000AEADACABAAA9A8A8A7A6A5A4A3A3A2A144
:10490000A09F9F9E9D9C9C9B9A99999897979695FE
:1049100095949393929191908F8F8E8E8D8C8C8B9A
:104920008B8A898988888787868585848483838222
:10493000828181800000FF070000F87F4FEA115359
:10494000A3F58063D3F11E03A8BFD3F1200C08DBCD
:104950004FF0004242EAC12252EA505232FA03F0CA
:10496000704709420BD4102BC4BF0020704703F5D9
:10497000787CBCF1FF3F05D04FF0FF3070474FF01F
:104980000000704770B500F017F900BF499224800D
:1049900000207047F0E710F0004248BF4042B0FAF4
:1049A00080F310FA03F10AD0C3F11D0303F580630D
:1049B0004FEA415002EB035202EBD12170474FF016
:1049C00000007047B0FA80F310FA03F10AD0C3F187
:1049D0001D0303F580634FEA41504FEA035202EB97
:1049E000D12170474FF000007047000051EA030CDE
:1049F00017D41CF5801F58BFBCF5801F00F106803E
:104A0000994218BF704708BF9042704707D711F509
:104A1000801F58BF13F5801F19D4994270478942EF
:104A200070471CF5801F08D5BCF5801FF7D58B4259
:104A300018BF704708BF824270474FF4001C1CEB40
:104A4000410F38BF1CEB430F01D28B42704770B54A
:104A500000F0B2F8922449004FF000514FF080531B
:104A6000FFF708BEDFF848C170B51CEA111E1EBF73
:104A70001CEA13159EEA0C0F95EA0C0F00F06F80EC
:104A800081EA030423EA4C134EEAD47E21EA4C1156
:104A900041F4801143F48013AE44A1FB024CA0FB0F
:104AA0000365AEF17F7E361955EB0C05A1FB034C77
:104AB0004CF10003A0FB021C16EB0C06654153F100
:104AC0000003094218BF46F0010613F4007F0BD122
:104AD0004FEA03314FEA0530340341EA155140EA09
:104AE00016506FF003020AE04FEAC3214FEAC520D7
:104AF000F40241EA555140EA56506FF0020202EBCF
:104B00002E4201EB025585EACE710AD05FEA440CD1
:104B100018BF24F0004450F1000041F1000120EAE8
:104B2000D47040F2FE7C624500D270BDA84214BF32
:104B30004FF080444FF04044002E08BF0024BEF1E7
:104B4000806FA8BFA1F1C041BDE8704080F28280B3
:104B50004FF0000001F1C04101F0004170479EEAB2
:104B60000C0F0CEA131518BF95EA0C0F06D04FF086
:104B7000000081EA030E0EF0004170BD00F01CF849
:104B80008900013E00F007B800F009B84FEA430C75
:104B90005FEA5C5C08D081EA030100F05BB84FEA91
:104BA000410C5FEA5C5CF6D14FF0000001497047B0
:104BB0000000FF070000F87F0EF1020E2EF0030E3A
:104BC0005EF8046B364205D4012A43EB030515F564
:104BD000001F12D8012841EB010C1CF5001F0CD856
:104BE0000ED14FEAD17C15F5001F0CEB4C0C0CF1EB
:104BF000020C08BF4CEBD37C04E04FF0080C01E042
:104C00004FEAD37C0CEB4C0526FA05F606F00706B6
:104C1000B6F1040C06D20EEB860CBDE870404CF0E9
:104C2000010C6047DFE80CF0090B02024FF0004175
:104C30004FF00000A1F5002170BD19461046012873
:104C400051EB010418BFD4F5001484BF002001F01B
:104C5000004170BD0808A0F500114FEA310170470E
:104C600053EA010C17D41CF5801F58BFBCF5801FF8
:104C700000F106808B4218BF704708BF8242704720
:104C800007D713F5801F58BF11F5801F19D48B4229
:104C900070479B4270471CF5801F08D5BCF5801FEC
:104CA000F7D5994218BF704708BF904270474FF43C
:104CB000001C1CEB430F38BF1CEB410F01D2994283
:104CC00070470FB40CBC03BCFFF7C1BE91EA030FE1
:104CD00010B581F000413FF525AC83F0004300F0B2
:104CE000EFB800002DE9F04101F5801CBCF5001F74
:104CF000C0F2C3804FEA115C21EA0C510CF1FD0CAB
:104D000041F480115FEA5C0C0CF5C07C01D34000DB
:104D100049413DA4890241EA905187028E0E0A0C56
:104D2000A45D04FB04F602FB06F6C6F14046A4FBB4
:104D30000662F60D46EA422606FB06F4A4FB0123B2
:104D40005242C3F1404338BF5B1EA6FB024200241F
:104D5000E6FB0324D20B42EA4446A6FB0623A1FB52
:104D600002E2A3FB07E4A4184FF0000252F1000294
:104D7000E3FB01426442C2F1404E38BFAEF1010E86
:104D8000A6FB04234FF00002E6FB0E32A2FB034613
:104D90004FF00004B61954F10004E2FB0264A1FBD9
:104DA00006E6A4FB07E816EB08064FF0000858F1EA
:104DB0000008E4FB01687642C8F1405838BFA8F10A
:104DC0000108A2FB06E4A3FB08E52D194FF000043F
:104DD00054F10004E2FB0854A1FB05E6A7FB04E83C
:104DE00018EB06084FF0000656F10006E1FB0486BA
:104DF00018F1200556F10006A809A8F11B08B10911
:104E000008F03F08B8F10A0F40EA86601CD901EBB0
:104E10000C51BDE8F08100BFFCF5EEE8E2DDD8D32F
:104E2000CFCBC7C3C0BDB9B6B4B1AEACA9A7A5A31B
:104E3000A19F9D9B9A9896959392908F8D8C8B892C
:104E40008887868584838281A0FB006800FB01F24D
:104E500008EB4208B8EB872807D5341858EB010453
:104E6000D5D5401C51F10001D1E7341A78EB01048B
:104E7000CDD4401E71F10001C9E75FEA4C0C5FEA36
:104E80009C5C0DD105D34FF0000001F00041BDE85E
:104E9000F081BDE8F04170B5FFF78EFE6DDBFFBE1F
:104EA000BDE8F0414FF00000004970470000F87F76
:104EB00010B591EA030F48BF83F000433FF532ABD2
:104EC000841A71EB030C07D212198CF0004C43EBDF
:104ED0000C03001B61EB0C01DFF8A4E14FEA115455
:104EE000A4EB135C1EEA430F18BF9EEA445F00F078
:104EF000B08023EA6E03524221EA0451C3EB6E03F1
:104F000038BF5B1EDCF1200E25D322FA0CFE10EB1D
:104F10000E0043FA0CFE41EB0E01CCF1200E03FA19
:104F20000EFE10EB0E0051F10001CCF1200E29D441
:104F300012FA0EF201EB0451BDE8104058BF704761
:104F4000401C1CBFB2F1004F704700280CBF491C29
:104F500020F00100704712EB020E43EB030218BF72
:104F60004FF0010E4EEA4202ACF1200CDCF11E0EB5
:104F700054D943FA0CFE10EB0E0051F1FF31CCF185
:104F80001E0ED5D50EF1010E12FA0EFE404141EB78
:104F9000010101EB445C5FEA5C5C10D910EBDE7050
:104FA00001EB045138BFBEF1004FBDE8104018BFFF
:104FB000704700280CBF491C20F00100704730D218
:104FC0004FEAD42C11F5001124F400641BD0B1FA7F
:104FD00081F20B3AA41AA41ED2F12003914030FAB8
:104FE00003F31943904001EBCC71002C01EB045109
:104FF000BDE81040A8BF704701F1C0414FF000006C
:1050000001F000417047B0FA80F310FA03F100D1CB
:1050100010BDE41A173C4805C90AE4E701EB045146
:1050200010BD491001EB0451BDE810404FEA3000BB
:1050300002E04FF0000170474A0008BF0042F8D07C
:10504000B2F5001F28BF704701F000414FF000008B
:1050500070479EEA445F07D011EA5E0FBDE810403A
:1050600004BF002100207047BDE8104070B5FFF775
:10507000A3FD00BF40DFF63E83F0004110467047BD
:105080000000E0FF43004FEAD30C4FEA3C0C4340E2
:105090001FBF40070CF1605113F0FE4F70471CF02A
:1050A000006F03D100200CF0004170470CF000436A
:1050B00043EA507010B540EACC0000F0C8F900BFD8
:1050C000000000924FEA0001FFF7C4BD4FF000411D
:1050D0004FF00000A1F500217047000090EA010F99
:1050E00048BF81F0004100F10482421A3CBF801A9F
:1050F00089184FEAD0524FF07F4C1CEA410FA2EBC7
:10510000D15318BF9CEA026F00F03B804FF0004C77
:105110004CEA00204CEA012121FA03FC10EB0C0CB4
:105120001ED202F1FF325FEA1C2040EBC25038BFB2
:1051300070471CF07F0F4FEA400C18BFBCF17F4F47
:1051400038BF7047C3F12003994008BF20F0010029
:10515000BCF17F4F38BF7047A0F1C04000F0BDB92F
:105160004FEA3C00000A40EBC25028BF1CF0FF0F82
:105170004FEA400CE6D018BFBCF17F4F38BF7047F4
:10518000EAE79CEA026F05D010EA5C0F08BF00F066
:105190000040704710B500F05AF900BF64FBBE3EF6
:1051A0004FF47F0C1CEAD0121EBF1CEAD11392EA06
:1051B0000C0F93EA0C0F00F0858090EA010F48BFB6
:1051C00042F4807240F4000C41F400002CF07F4166
:1051D00020F07F4000B58142A2EB03020FF2081CD1
:1051E000ACEB504EC0F100009EF800E04FEA4E0ECE
:1051F00000FB0EFC38BF49004FEA2C1C02F5FA02F6
:105200000CFB0EF34FEACE1E4FEA112C4FEAC121E0
:105210000EEB635E42EB22420EFB0CFC4FEA1C538A
:1052200000FB03114FEA112C4FEA01310EFB0CFC7D
:105230004FEADC4C00FB0C11C14228BF09184CEBB3
:1052400003335DF804EB10EB410143EBC250B2F5C0
:105250007C0F38BF704729D512F0F00F1CBF00F14A
:10526000C04000F0004070470081828384858687BB
:1052700088898B8C8D8E8F919293959697999A9C15
:105280009D9FA0A2A3A5A7A8AAACAEB0B2B3B5B784
:10529000B9BCBEC0C2C5C7C9CCCED1D4D7D9DCDF5A
:1052A000E2E6E9ECF0F3F7FAFE0000004FEA400C0A
:1052B0000CF1807CBCF17E4F28BF7047B0F1C0403C
:1052C00000F00BB990EA010F0CEAD11348BF42F489
:1052D0008072624538BF634507D213F47F0F16D042
:1052E00080EA010000F00040704710B500F0AFF810
:1052F000097EFC3E00F005B880EA010000F00040A5
:10530000704780EA010000F0004000F0E6B812F4B7
:105310007F0F04BF0248704780EA010000F0DDB84B
:105320000000C07FB0FA80F310FA03F2C3F19D03CE
:105330000AD0D90501EB1220530638BF704700F19F
:10534000010008BF20F00100704700004FF47F0CFF
:105350001CEAD0121EBF1CEAD11392EA0C0F93EA8A
:105360000C0F00F0478090EA010F48BF42F48072B2
:105370004FF0004C4CEA00204CEA012102EB030202
:10538000A0FB0113A2F50002002918BF43F001039E
:105390005B0028BF4FEA330342EB22425FEA132C43
:1053A0004CEBC2502EBFBCEB436FB2F57C0F704785
:1053B0004FEA036CBCF1004F08BF20F00100B2F5CA
:1053C0007C0F38BF70470BD582F0FF0212F5803F8B
:1053D000C8BF704700F1C040D8BF00F00040704720
:1053E00000F5000C5FEA4C0C48BF7047B0F1C040BC
:1053F00000F073B890EA010F0CEAD11348BF42F4F1
:105400008072624538BF634504D280EA010000F033
:105410000040704710B500F01AF800BF8900013E47
:1054200000F007B800F009B85FEA410C5FEA1C6CB5
:1054300008D080EA010000F050B85FEA400C5FEA53
:105440001C6CF6D14FF00040A0F5800070470EF1C3
:10545000020E2EF0030E5EF8044B244204D44FEAF1
:105460004102B2F17F4F11D84FEA4003B3F17F4FB1
:105470000CD80ED14FEAD07CB2F17F4F0CEB4C0C24
:105480000CF1020C08BF4CEBD17C04E04FF0080C8F
:1054900001E04FEAD17C0CEB4C0324FA03F404F056
:1054A0000704B4F1040C06D20EEB840CBDE81040E6
:1054B0004CF0010C6047DFE80CF0070802024FF0E7
:1054C0000040A0F5800010BD0846420018BFD2F190
:1054D000807288BF00F0004010BDFF2141EAD0502B
:1054E000C005704790EA010F48BF81F000413FF5C9
:1054F000FCAD421A04D882F00042A0EB0200114435
:105500004FEAD0524FF07F4C1CEA410FA2EBD1532F
:1055100018BF9CEA026F4AD04FF0004C4CEA0020C2
:105520004CEA012121FA03FCB0EB0C0C0FD412F071
:10553000FE0F36D05FEA4C001DD5001240EBC25082
:1055400038BF70471CF03F0F18BF70470BE0A2F147
:1055500001025FEA1C2040EBC25038BF70471CF0CC
:105560007F0F18BF7047C3F12003994014BF401E3E
:1055700020F00100704780084FEA122308BF7047EF
:10558000B0FA80FCA2EB0C02CCF1280C60FA0CF013
:1055900093EA122F04BF00EBC25070474FEAC3706A
:1055A0007047130A5FEADC1008BF7047F6E79CEA11
:1055B000026F04D010EA5C0F08BF0020704710B5DE
:1055C000FFF745FF40DFF63E81F000407047FBF7F4
:1055D000C6B80CF00F03092B08BF082000F0598053
:1055E0000A2B0BD0082B18BF704708BF1CF0400FC8
:1055F0000AD04FF000004FF0000170471CF0400F40
:1056000018BF4FF0004070471CF0100F08D020F07A
:10561000704300F07F4242EAD3014FEA4370704783
:1056200000F0604021F07F4242EA000201F07F403A
:1056300040EA727070474FF0FF0C4CF4E06C1CEACB
:1056400011531CBF9CEA030C9445C2BFDA4201EB24
:1056500002517047002B0DD0BCF1000F0FD0002A73
:1056600001F00041A4BF41F0E04141F07F614FF003
:105670000000704701F000414FF00000704750EA11
:1056800001334FF09B0C18BF4CF0806C7EF4EAAFF6
:1056900070471CF4801F11D01CF4E02F03D06FEA78
:1056A000CC31490070474FF04050EFF3008222F0B8
:1056B000704242EA000282F3008870474FF0000017
:1056C000704700000000000000000102030406070C
:1056D00008090000000001020304000000000000AF
:1056E000000000000000F03F000000000000F83F54
:1056F00000000000000000000000004003B8E23F8E
:10570000000000000000000006D0CF43EBFD4C3E3F
:10571000033333333333E33FFFAB6FDBB66DDB3F34
:105720004D268F515555D53F01411DA96074D13F7C
:1057300065DBC9934A86CD3FEF4E454A287ECA3F76
:105740003E5555555555C53F93BDBE166CC166BFF8
:105750002CDE25AF6A56113FF16BD2C541BDBBBEF1
:10576000D0A4BE726937663E000000000000000051
:1057700002400000000000A0000000000540000002
:10578000000000C8000000000C4000000000409C29
:1057900000000000194000000020BCBE0000000016
:1057A00034400000BFC91B8E00000004B54000005B
:1057B000504BCFD06607E2CF010000006C410000E3
:1057C0003E8251AADFEEA73401000000D94200005A
:1057D000DCB5A0E23A301F97FFFFFFFFB4450000A1
:1057E000FD25A0C8E9A3C14FFFFFFFFFFF3F000059
:1057F0000000008000000000FF3F0000000000806B
:1058000000000000405800080000002030000000A8
:10581000280100087058000830000020F807000038
:10582000440100081C00000043000000F8FFFFFFD7
:105830000C0000000E0000000F0000002E00000011
:105840000000000000000000000000000000000058
:105850000000000000000000A80000204E00000032
:105860000100000010000000000000000024F4000F
:04000005080000ED02
:00000001FF
